:100BA60060200111000000000000000000000000AD
:100BB600000000000000000000000000000000002F
:0C0BC6000000000041013100410132003C
:10152000438520900137E04404F0F5F77586807517
:10153000985075C830AB07AA06E4F9F87F207EA161
:101540007D07FC1214DCC3E49FFFE49EF5CBEFF5AE
:0B155000CA85CBCD85CACCD2ACD2CA74
:01155B00226D
:0800030053F7FBC2ACC2CA2294
:0B13660090014FEBF0A3EAF0A3E9F0C8
:10137100E4A3F01218DDEFC394107480948040024E
:101381007F10AE071FEE602B90014FE0FBA3E475C9
:10139100F0011201E4A9F0FA120154FE900152E0A9
:1013A1002439F582E43401F583EEF0900152E00432
:0313B100F080CFFA
:0113B4002216
:1000370090014AEFF0E0FF14F0EF6016E4900149F9
:10004700F0E0FF04F074392FF582E43401F583E022
:03005700F59922F6
:1014980090014CEBF0A3EAF0A3E9F07E007F107D09
:1014A800007B017A01793912033F90014CE0FBA3DC
:1014B800E0FAA3E0F912136690014CE0FBA3E0FA0E
:1014C800A3E0F91218DD1200377FE87E037D007C67
:0414D8000002144FAB
:1013B50090014DEFF0A3EDF0A3EBF060417E007FCF
:1013C500107D007B017A01793912033F9001397450
:1013D500FFF090014DE090013AF090014EE0900150
:1013E5003BF090014FE090013CF0A374FFF07F05C6
:0F13F5001200377FE87E037D007C0012144F2228
:1006EC0050776F6E0D0A0050776F66660D0A004BDF
:1006FC005F450D0A004B5F53207375620D0A004B6A
:10070C005F53206164640D0A004B5F776869746500
:10071C000D0A004B5F7265640D0A004B5F6220612D
:10072C0064640D0A004B5F79656C6C6F770D0A0081
:10073C004B5F677265656E0D0A004B5F7363616C8E
:10074C00650D0A004B5F636F6C6F720D0A004B5F97
:10075C00626C75650D0A004B5F62207375620D0A41
:10076C00004B206D310D0A004B206D320D0A004BF1
:10077C00206D330D0A004B206D340D0A004B206D9B
:10078C00350D0A004B206D360D0A004B206D370DD0
:10079C000A004B206D380D0A004B206D390D0A00F4
:1007AC004C4B2070776F6E0D0A004C4B2070776F9E
:1007BC0066660D0A004C4B20650D0A004C4B2063FD
:1007CC006C0D0A004B6572720000010D0903020CDE
:1007DC000804110B0706110E0A050000000001FFAA
:1007EC00197602FF192E03FF19A304FF196405FFE4
:1007FC00195B06FF190A07FF199108FF185909FF21
:10080C0019400AFF191C0BFF19880C0000000DFF82
:10081C0019370EFF19130FFF199A10FF19AC11FF9E
:10082C00194912FF190113FF196D14FF002615FF4A
:10083C00195216FF192517FF197F18FF181D19FFDC
:0E084C0019B51AFF183B1BFF19BE1CFF19C778
:100BD200C100410025004100D10042004A0000410D
:100BE200002600410000004100D5004100220041E2
:100BF20000B0004100D20060200002021BFEEEC0E5
:100C020007DA7813010411070010FF010203140030
:100C12000000010000AA0000000000410024004181
:070C220000D4004100230093
:100F6700200003020FF3900048E014602F14605430
:100F77002402707890014E7401F0A37400F0A374FA
:100F870002F0A3741DF0A37425F07B017A00795059
:100F97001209A09000487401F0D2012290014E740A
:100FA70001F0A37400F0A37402F0A3741DF0A374FE
:100FB70026F07B017A0079701209A090004874022C
:100FC700F0D2022290014E7401F0A37400F0A374D2
:100FD70002F0A3741DF0A37427F07B017A007990C7
:0D0FE7001209A0E4900048F0D203C20022DD
:0100180022C5
:0100190022C4
:01001A0022C3
:101603007593FF759EFF75AAFF53943C539F3C430C
:10161300943C439F3C43AB3C53AB3C75B400C2A7E3
:10162300C2A6C2A4C2A07595FF75A5FF75ACFF7FC6
:06163300017E0002174BCE
:1018C50053943C539F3C4395F043A5F043ACF0C281
:0818D500A7C2A6C2A4C2A02212
:0A000E00E4F587F586F585F58422F8
:1016CE00200529900136E004F07006900135E00403
:1016DE00F0900133E0FEA3E0FFD3900136E09F903F
:0D16EE000135E09E4006D204E4F0A3F02296
:10131200300650C2061218C57F507E007D007C0048
:1013220012144F1219D09008B674A0F07480F0FF16
:101332007E251215207F607EEA7D007C0012144F0C
:101342007FC87E007D007C0012144F1218927FC865
:101352007E007D007C0012144F120018E4900135CB
:04136200F0A3F022E2
:1011F500300461C20412000312001AC2EB1219D89E
:10120500C28CC2A9C28EC2AB85850BE4F5851216C8
:10121500039008E3E04411F075EE0FE4F5FC745318
:10122500F07FC87E007D007C0012144F7586030098
:101235000000000000000000000000E4F58600004A
:10124500000000000000000000007FC8FEFDFC1249
:05125500144FD2062237
:10155C00E4FF4394D1439FD143ABD1F595F5A5E579
:10156C00A054D164D1601A20A7047F01801320A657
:10157C00047F02800C20A4047F03800520A0E07F60
:08158C000453942E539F2E22FC
:1016390053942E539F2E7595FF75A5FF75ACFF8F9B
:10164900A0E5B0540F640F601820B0037F05222075
:10165900B1037F062220B2037F072220B3037F084C
:04166900227F0022BA
:100E1A00E490014CF012155CEFF06008E0FD7B01F4
:100E2A007FEA80317FD112163990014CEFF06013BE
:100E3A00E02410FD7B017FEF1213B590014CE024F2
:100E4A0010FF227F5112163990014CEFF0600BE02F
:100E5A00FD7B017FEB1213B5805D7F9112163990ED
:100E6A00014CEFF06013E02404FD7B017FEC1213C8
:100E7A00B590014CE02404FF227FC112163990017B
:100E8A004CEFF06013E02408FD7B017FED1213B5EF
:100E9A0090014CE02408FF227FD012163990014CB1
:100EAA00EFF06013E0240CFD7B017FEE1213B59086
:0D0EBA00014CE0240CFF2290014CE0FF22CF
:1017B90090000FE0FF7E0EEEC39418748094805061
:1017C9001074022EF582E43400F583E02FFF0E80B9
:0217D900E62206
:1017240012166D900003741BF090000A7414F0A359
:101734007401F0A37404F0A37411F0A37407F0E42B
:07174400A3F0A37410F022D2
:1017FD00E4900018F0900000E004F0E0900019F083
:10180D001217B990001AEFF0E4A3F0A374AAF02216
:101859007BFF7A0679EC12149890000174FFF090DE
:0D1869000011F09000157414F0E4A3F022BB
:10181D007BFF7A0679F312149890000174FFF09013
:0E182D000011F09000157414F0A37401F02265
:090026007BFF7A0679FB021498B5
:091901007BFF7A077901021498BA
:09190A007BFF7A07790B021498A7
:091913007BFF7A07791502149894
:09191C007BFF7A07791F02149881
:091925007BFF7A07792702149870
:09192E007BFF7A0779310214985D
:091937007BFF7A07793C02149849
:091940007BFF7A07794602149836
:091949007BFF7A07795002149823
:091952007BFF7A07795A02149810
:09195B007BFF7A077963021498FE
:091964007BFF7A07796D021498EB
:09196D007BFF7A077974021498DB
:091976007BFF7A07797B021498CB
:09197F007BFF7A077982021498BB
:091988007BFF7A077989021498AB
:091991007BFF7A0779900214989B
:09199A007BFF7A0779970214988B
:0919A3007BFF7A07799E0214987B
:0919AC007BFF7A0779A50214986B
:1016FB00EFFD7C00640870037F1922ED64184C70B9
:10170B00037F1A22EFFD7C00641470037F1B22ED14
:09171B0064114C70037F1C2222B2
:0919B5007BFF7A0779AC0214985B
:10183B007BFF7A0779B612149890000174FFF09031
:0E184B000011F09000157414F0A37401F02247
:0919BE007BFF7A0779C10214983D
:0919C7007BFF7A0779C80214982D
:100D5100120E1A90014BEFF06003020DEC9000258A
:100D6100E0FF7003020E1990004AE0FCA3E0FDC30E
:100D71009432EC9400402DED94E8EC9403502590CE
:100D81000025E0FE25E025E024E6F582E43407F5C0
:100D910083E493B50603EF80357BFF7A0779D012A0
:100DA10014988042D390004BE094B090004AE094B4
:100DB100044033900025E0FF25E025E024E6F5829C
:100DC100E43407F583E493B5071C900025E025E0A2
:100DD10025E024E7F582E43407F583740193FA747E
:100DE1000293F9120339D205E48029900025E070BD
:100DF1000690004AF0A3F0D390004BE094E89000F5
:100E01004AE0940390014BE0400AFF1216FB900068
:090E110025EFF022900025F022EB
:100AC200900138E004F0E0D394C87480948040131D
:100AD2009000D5E09000D3F0E49000D5F0C20590EC
:100AE2000138F09000477420F0300139E0FF7E00B9
:100AF20078B17C007D017B017A00795012012E9041
:100B020008857402F09008D274F0F0A3744AF07B66
:100B1200017A0079B1900047E0FD1218F29000EAE4
:100B2200E060FAE4F030023C900047E0FF7E00789B
:100B3200B17C007D017B017A00797012012E900850
:100B420085741AF09008D27430F0A3744AF07B01D5
:100B52007A0079B1900047E0FD1218F29000EAE0C5
:100B620060FAE4F030033C900047E0FF7E0078B189
:100B72007C007D017B017A00799012012E9008851C
:100B82007450F09008D27480F0A37448F07B017A1C
:100B92000079B1900047E0FD1218F29000EAE0609F
:040BA200FAE4F0225F
:1018AC0090004F7422F090004E7433F090004D7401
:0918BC0044F090004C7455F02238
:10166D0090004CE0FF900004F090004DE0FE9000E3
:10167D0005F090004EE0FD900006F090004FE090D8
:10168D000007F0E4A3F0900012EFF0A3EEF0A3ED4D
:02169D00F02239
:100EC70090014B740AF0C2AF12189212036BD2AFA3
:100ED7007F807E251215207F607EEA7D007C0012D0
:100EE700144F90014F7401F0A37400F0A37402F043
:100EF700A3741DF0A37425F07B017A0079501210BA
:100F0700809001397432F0A37434F0A37436F0A3DF
:100F17007431F0A37469F0A3746EF0A37469F0A33D
:100F27007474F0A3740AF0A3740DF07F09120037EC
:100F37007F607EEA7D007C0012144F7F017E0012E5
:100F4700174B12001890000174FFF01218AC9001B3
:100F5700337401F0A374F4F0E4900024F002172432
:1012BA00E4900137F0F5F712000E1218C57FF47E9C
:1012CA00017D007C0012144F120EC7D2EB90016B05
:1012DA00E06008E4F0120D511216CE90016AE06047
:1012EA0008E4F0300503120AC290016CE06008E4D9
:1012FA00F0300503120F671211F5121312758601E9
:08130A0000000000000080C398
:03000000020FF4F8
:0C0FF400787FE4F6D8FD75812002103BE8
:100C2900C10541013800C104C10642013500004235
:040C39000133000083
:100C3D005400D6000000000000000000000000007D
:0C0C4D000000000000000042010F000049
:10110700AB07900154E0FCA3E0FDA3E0FEA3E0FFE2
:10111700EB25E025E024EBF582E43400F5831202A9
:10112700FC9008BCE030E7F9900154A3A3A3E0FFCB
:101137009008B8EFF0900154E0FCA3E0FDA3E0FEB7
:10114700A3E0FF78081202D99008B9EFF090015494
:10115700E0FCA3E0FDA3E0FEA3E0FF78101202D9B4
:101167009008BAEFF0900154E0FCA3E0FDA3E0FE85
:10117700A3E0FF78181202D99008BBEFF0A3EBF0B9
:011187002245
:0819D000900880E04402F022BF
:0819D800900880E054FDF022AC
:101796001219D07F017E0012174B9008B674A0F084
:1017A6009008B5E4F0900880E054FEF09008B57417
:0317B60001F0221D
:101876001219D09008B674A0F09008B5E4F090085C
:0C18860080E054FEF09008B57401F022E0
:0B15940090014BEBF0A3EAF0A3E9F09C
:10159F009008B67468F0E4FFEFC39D501A90014BAA
:1015AF00E0FBA3E0FAA3E0F98F8275830012016DCF
:0C15BF009008B7F00F80E19008B6E4F04F
:0115CB0022FD
:0F18F2001218769008B674A0F07480F002159466
:03005B0002169FEB
:10169F00C0E0C083C0829008C0E030E604E0444060
:1016AF00F09008C0E030E50D9000EA7401F090086A
:0F16BF00C0E04420F053C0F7D082D083D0E03297
:10174B00E4FDFCC3ED9FEE6480F8EC6480985015CB
:10175B00E4FBFA0BBB00010ABA05F8BB78F50DBD2B
:05176B0000010C80DE0E
:011770002256
:10144F00803E900150E0FCA3E0FDA3E0FEA3E0FF8F
:10145F00EC4D4E4F6032E4FFFE0FBF00010EEF6404
:10146F00014E70F5900150E0FCA3E0FDA3E0FEA358
:10147F00E024FFFFEE34FFFEED34FFFDEC34FFFC04
:08148F009001501202FC80BA2A
:011497002232
:100C590042016D0000010A00010800010900C107F5
:080C690041016800410169012D
:10189200438540C2ABC28EC28F53890F43891075F4
:0A18A2008B96758DF5D2ABD28E2225
:03000B0002177168
:10177100C0E0C083C082C28C758A7D758CFFD28C1B
:1017810090016EE004F0700690016DE004F0D082EB
:05179100D083D0E0321E
:03001B0002118847
:10118800C0E0C083C082C0D0C28EC28F758B9675F6
:101198008DF5D28E050A0508050990004BE004F08C
:1011A800700690004AE004F0C3E508940274809445
:1011B80080400975080090016A74FFF0C3E509943E
:1011C8000974809480400975090090016C74FFF0DF
:1011D800C3E50A940574809480400990016B74FFFC
:0D11E800F0750A00D0D0D082D083D0E03264
:03002300020C804C
:100C8000C0E0C083C082C0D075D000C000C005C025
:030C900006C00794
:100C9300209803020D1DC298AF99EF6455702E90F2
:100CA3000169E06028E4FE900132E0FDEEC39D504F
:100CB3000F74112EF582E43401F583E4F00E80E71E
:100CC3009001687401F0A3E4F0900132F0900168A0
:100CD300E0FE64017015900132E02411F582E434E2
:100CE30001F583EFF0900132E004F0EF647E704D84
:100CF300EE604A900113E02404FFE433FE900132D6
:100D0300E0C39FEE6480F87480984031900168E4FA
:100D1300F0A304F0900131F08023309920C2999020
:100D2300014AE0FF14F0EF6014900149E0FF04F082
:0D0D330074392FF582E43401F583E0F59961
:100D4000D007D006D005D000D0D0D082D083D0E05C
:010D50003270
:1015CC00001B33181FB780D0044120080351188822
:1015DC00C2340F86C0C44491C38960D3CF2931B8BB
:1015EC00D51782B996821B32048064A8561BA20AB6
:0715FC002C9987000000009C
:0E0C710044015C898699004401601122330021
:08140400E0FBA3E0FAA3E0F90C
:0B140C00900154EBF0A3EAF0A3E9F01C
:10141700E4FF90015AE0FEEFC39E502B900157E086
:10142700FBA3E0FAA3E0F98F8275830012016DFE3A
:10143700900154E0FBA3E0FAA3E0F98F82758300E3
:07144700EE1201AC0F80CB97
:01144E00227B
:0717DB0075830012016DFF90
:1017E200E4FEFDEE25E0FEEF30E004EE4401FEEF04
:0A17F200C313FF0DEDB408EBAF06C2
:0117FC0022CA
:0E085A00900154EBF0A3EAF0A3E9F0A3EDF057
:10086800A3E0FBA3E0FAA3E0F9745512019A900102
:1008780058E0FBA3E0FAA3E0F990000174551201D7
:10088800AC90000274551201AC900157E0FE14F0D0
:10089800EE700302099F900154E0FBA3E475F00198
:1008A8001201E4A9F0FA12015490015BF0E4FFEFA1
:1008B800C3940850D4900158E0FBA3E0FAA3E0F9F0
:1008C800120154FD25E012019A900158E0FBA3E0C3
:1008D800FAA3E0F990000112016D30E70812015403
:1008E800440112019A900158E0FBA3E0FAA3E02426
:1008F80001F9E43AFA12015425E012019A900158DC
:10090800E0FBA3E0FAA3E0F990000212016D30E7E2
:100918000FE92401F9E43AFA120154440112019A48
:10092800900158E0FBA3E0FAA3E02402F9E43AFAC4
:1009380012015425E012019AAE05EEC413131354A4
:1009480001FE90015BE054016E6041900158E0FBAC
:10095800A3E0FAA3E0F912015412019A900158E0B9
:10096800FBA3E0FAA3E02401F9E43AFA1201546483
:100978000612019A900158E0FBA3E0FAA3E02402D2
:10098800F9E43AFA120154645B12019A90015BE0AF
:07099800C313F00F0208B7C2
:01099F002235
:09125A00F9E0FDA3E0900158F059
:0B126300900154EBF0A3EAF0A3E9F0C7
:10126E00900158E0547FF0E04440F0AF051DEF6070
:10127E003A7F01EF6029900158E030E0156488F064
:10128E00900154E0FBA3E0FAA3E0F91201546F12AF
:10129E00019A900158E0C313F0EF25E0FF80D4903F
:0B12AE000155E475F0011201CE80C074
:0112B9002212
:0B09A00090014BEBF0A3EAF0A3E9F09C
:1009AB00900151E0FFC394084006EFD39427400316
:1009BB007F002290014EE0F9A3E0FAA3E0900157EB
:1009CB00C9F0A3EAF0A3E9F0900151E090015AF0CD
:1009DB0090014B121404900151E0FD90014BE0FB90
:1009EB00A3E0FAA3E0F9EDFF7E00E92FF9EE3AFA66
:1009FB00900158EBF0A3EAF0A3E9F090014BA3E0D0
:100A0B00FAA3E0F912085AE4900153F0900153E075
:100A1B00FFC394035044900151E02FFFE433FE9049
:100A2B00014BE0FBA3E0FAA3E0F98F828E83121750
:100A3B00DE900153E0FD900151E02DFDE433FC907D
:100A4B00014BE0FBA3E0FAA3E0F98D828C83EF125C
:100A5B0001AC900153E004F080B2900151E024030B
:100A6B00F090014BE0FBA3E0FAA3E09001511212CE
:100A7B005AE4900153F0900151E0FF900153E0FED6
:100A8B00C39F503090014BE0FBA3E0FAA3E0F98E3B
:100A9B00821217DB90014BE0FBA3E0FAA3E0F99085
:100AAB000153E0F582758300EF1201AC900153E026
:060ABB0004F080C27F017F
:010AC1002212
:0B10800090014CEBF0A3EAF0A3E9F0B4
:10108B00900152E0FFC394084006EFD3942740032E
:10109B007F002290014FE0F9A3E0FAA3E090015703
:1010AB00C9F0A3EAF0A3E9F0900152E090015AF0E5
:1010BB0090014C121404E4FC900152E0FFECC39F2E
:1010CB00502790014CE0FBA3E0FAA3E0F98C8212CD
:1010DB0017DB90014CE0FBA3E0FAA3E0F98C8275DF
:1010EB008300EF1201AC0C80CF90014CE0FBA3E02E
:0B10FB00FAA3E090015212125A7F018C
:0111060022C6
:10055C001217969008A2E04480F09008DBE4F0902B
:10056C0008DA04F07F07900886EFF090015412032C
:10057C000890F7C9607F011211079001541203080B
:10058C0001B6C6327F021211079008E3E04420F056
:10059C00900154120308BB96821B7F041211077F33
:1005AC00037E0012174B900154120308B996821B5C
:1005BC007F041211079008DDE4F09008DC04F09041
:1005CC0008D9E054FEF07F327E0012174B9008D908
:1005DC00E04401F07F1E7E0012174B9008BFE0FF35
:1005EC00900151E4F0A3EFF09008BEE05403FE90AC
:1005FC000152E02400F0900151E03EF090014D12C8
:10060C00030800012C0090014DE0FCA3E0FDA3E0E9
:10061C00FEA3E0FFC006C007A3E0FEA3E0FBAA0612
:10062C00E4F9F8D007D00612023690014D1202FC04
:10063C00E4FF7E02FDFC90014DE0F8A3E0F9A3E09D
:10064C00FAA3E0FBC31202C8400A90014D12030842
:10065C00000001FF9008DAE054FEF0C083C082E095
:10066C00FB90014DE0FCA3E0FDA3E0FEA3E0FF78CE
:10067C00081202D9EF5401FFEB4FD082D083F090D7
:10068C00014DE0FCA3E0FDA3E0FEA3E0FF9008DB3E
:10069C00EFF09008DAE0FF900164E4F0A3EFF09043
:1006AC0008DBE0FF900166E4F0A3EFF09001541238
:1006BC00030890F789607F0112110790015412030F
:1006CC000801B6C6317F021211079008E3E054DF2F
:0F06DC00F09008A2E0547FF09008D9E054FEF0AF
:0106EB0022EC
:10036B00E490014CF090014CE0FEFFC00725E02526
:10037B00E024DFF582E43415F5831202EC9001548E
:10038B001202FCD00712110790014CE004F0E0C3FD
:10039B00940940D19008E1740EF0A37450F09001D1
:1003AB00541203080A2C00877F071211079008E3E9
:1003BB00E04411F09008D9E054EFF09008D8E044F5
:1003CB0005F078A27C087D017BFF7A1579CC7E0045
:1003DB007F0412012E78A67C087D017BFF7A1579AC
:1003EB00D07E007F0412012E78AA7C087D017BFF52
:1003FB007A1579D47E007F0B12012E900886740734
:10040B00F09008DE7404F0A374CDF0900154120345
:10041B0008B996821B7F0412110712055CE4900148
:10042B004CF090014CE0FEFFC00725E025E024DFF7
:10043B00F582E43415F5831202EC9001541202FCA0
:10044B00D00712110790014CE004F0E0C39409406F
:10045B00D19008807412F0A3E4F0A304F0A304F08D
:10046B00A3E4F0A37402F09008D274F0F0A3744AE2
:10047B00F0900886E054D7F0900886E04405F074BD
:10048B0007F090089A7420F09008A17401F0901F67
:10049B00FFE493900160F0901FFEE493900161F0F4
:1004AB00901FFDE493900162F0901FFCE493900188
:1004BB0063F090015F746BF090015E747DF09001BE
:1004CB005D7491F090015C7471F078877C087D010C
:1004DB007B017A0179607E007F0412012E78957C76
:1004EB00087D017B017A01795C7E007F0412012E6D
:1004FB00121796900164A3E09008DAF0900166A3BE
:10050B00E09008DBF090015412030890F789607FAC
:10051B000112110790015412030801B6C6317F0274
:10052B001211079008E3E054DFF09008A2E0547F2B
:10053B00F09008D9E054FEF09008E1740EF0A3742B
:10054B0080F09001541203080A2F8F877F07021146
:01055B000798
:101000000212BAE493A3F8E493A34003F68001F23A
:1010100008DFF48029E493A3F85407240CC8C333F1
:10102000C4540F4420C8834004F456800146F6DFC0
:10103000E4800B0102040810204080900BA6E47E9F
:10104000019360BCA3FF543F30E509541FFEE493B5
:10105000A360010ECF54C025E060A840B8E493A37C
:10106000FAE493A3F8E493A3C8C582C8CAC583CAA7
:10107000F0A3C8C582C8CAC583CADFE9DEE780BE5F
:010C7F000074
:10005E00E709F608DFFA8046E709F208DFFA803E84
:10006E0088828C83E709F0A3DFFA8032E309F60871
:10007E00DFFA8078E309F208DFFA807088828C83D9
:10008E00E309F0A3DFFA806489828A83E0A3F6088D
:10009E00DFFA805889828A83E0A3F208DFFA804C67
:1000AE0080D280FA80C680D4806980F2803380103E
:1000BE0080A680EA809A80A880DA80E280CA8033A7
:1000CE0089828A83ECFAE493A3C8C582C8CCC5831F
:1000DE00CCF0A3C8C582C8CCC583CCDFE9DEE780EF
:1000EE000D89828A83E493A3F608DFF9ECFAA9F06E
:1000FE00EDFB2289828A83ECFAE0A3C8C582C8CCC4
:10010E00C583CCF0A3C8C582C8CCC583CCDFEADEDC
:10011E00E880DB89828A83E493A3F208DFF980CC3E
:10012E0088F0EF60010E4E60C388F0ED2402B40437
:10013E000050B9F582EB2402B4040050AF232345DE
:06014E0082239000AE7355
:10015400BB010689828A83E0225002E722BBFE02A9
:09016400E32289828A83E49322DC
:10016D00BB010CE58229F582E5833AF583E0225047
:10017D0006E92582F8E622BBFE06E92582F8E22291
:0D018D00E58229F582E5833AF583E49322AB
:10019A00BB010689828A83F0225002F722BBFE0144
:0201AA00F3223E
:1001AC00F8BB010DE58229F582E5833AF583E8F089
:1001BC00225006E92582C8F622BBFE05E92582C835
:0201CC00F2221D
:1001CE00C5F0F8A3E028F0C5F0F8E58215827002BC
:0601DE001583E038F02259
:1001E400A3F8E0C5F025F0F0E582158270021583CE
:0601F400E0C838F0E8222B
:1001FA0075F008758200EF2FFFEE33FECD33CDCCBC
:10020A0033CCC58233C5829BED9AEC99E58298403E
:10021A000CF582EE9BFEED9AFDEC99FC0FD5F0D61B
:10022A00E4CEFBE4CDFAE4CCF9A88222B800C1B945
:10023A000059BA002DEC8BF084CFCECDFCE5F0CB83
:10024A00F97818EF2FFFEE33FEED33FDEC33FCEBBC
:10025A0033FB10D703994004EB99FB0FD8E5E4F977
:10026A00FA227818EF2FFFEE33FEED33FDEC33FC64
:10027A00C933C910D7059BE99A4007EC9BFCE99A58
:10028A00F90FD8E0E4C9FAE4CCFB2275F010EF2F9D
:10029A00FFEE33FEED33FDCC33CCC833C810D7079D
:1002AA009BEC9AE899400AED9BFDEC9AFCE899F8D8
:0E02BA000FD5F0DAE4CDFBE4CCFAE4C8F9226B
:1014DC00C2D5E830E70FB2D5E4C39BFBE49AFAE43B
:1014EC0099F9E498F8EC30E717B2D51215121202FC
:1014FC0036E4C39BFBE49AFAE499F9E498F8800388
:10150C0012023630D50DE4C39FFFE49EFEE49DFD30
:04151C00E49CFC222D
:1002C800EB9FF5F0EA9E42F0E99D42F0E89C45F08C
:0102D8002203
:1002D900E8600FECC313FCED13FDEE13FEEF13FF03
:0302E900D8F12227
:1002EC00E493FC740193FD740293FE740393FF2258
:0C02FC00ECF0A3EDF0A3EEF0A3EFF02275
:10030800A8828583F0D083D08212031F12031F12A4
:10031800031F12031FE473E493A3C583C5F0C583C9
:10032800C8C582C8F0A3C583C5F0C583C8C582C83F
:0103380022A2
:060339008A838982E4734F
:1018DD00E4FFFE120154600C0FEF70010E09E97068
:0518ED00F20A80EF2269
:10033F00EF4E6012EF60010EEDBB010B89828A83D5
:10034F00F0A3DFFCDEFA2289F05007F709DFFCA9E2
:0C035F00F022BBFEFCF309DFFCA9F02239
:00000001FF
